{
  "contractName": "parkingManager",
  "abi": [
    {
      "inputs": [],
      "payable": false,
      "stateMutability": "nonpayable",
      "type": "constructor"
    },
    {
      "anonymous": false,
      "inputs": [
        {
          "indexed": false,
          "internalType": "uint256",
          "name": "balance",
          "type": "uint256"
        }
      ],
      "name": "QueryBalance",
      "type": "event"
    },
    {
      "anonymous": false,
      "inputs": [
        {
          "indexed": false,
          "internalType": "uint256",
          "name": "fee",
          "type": "uint256"
        }
      ],
      "name": "SuccessPayment",
      "type": "event"
    },
    {
      "payable": true,
      "stateMutability": "payable",
      "type": "fallback"
    },
    {
      "constant": false,
      "inputs": [
        {
          "internalType": "uint8",
          "name": "time",
          "type": "uint8"
        }
      ],
      "name": "payMoney",
      "outputs": [],
      "payable": true,
      "stateMutability": "payable",
      "type": "function"
    },
    {
      "constant": false,
      "inputs": [],
      "name": "withdraw",
      "outputs": [
        {
          "internalType": "string",
          "name": "",
          "type": "string"
        }
      ],
      "payable": true,
      "stateMutability": "payable",
      "type": "function"
    },
    {
      "constant": true,
      "inputs": [],
      "name": "queryEther",
      "outputs": [
        {
          "internalType": "uint256",
          "name": "",
          "type": "uint256"
        }
      ],
      "payable": false,
      "stateMutability": "view",
      "type": "function"
    }
  ],
  "bytecode": "0x6080604052662386f26fc1000060005534801561001b57600080fd5b5033600160006101000a81548173ffffffffffffffffffffffffffffffffffffffff021916908373ffffffffffffffffffffffffffffffffffffffff16021790555061047e8061006c6000396000f3fe6080604052600436106100345760003560e01c80633ccfd60b14610036578063796358cd146100b957806388b6b52f146100e4575b005b61003e610115565b6040518080602001828103825283818151815260200191508051906020019080838360005b8381101561007e578082015181840152602081019050610063565b50505050905090810190601f1680156100ab5780820380516001836020036101000a031916815260200191505b509250505060405180910390f35b3480156100c557600080fd5b506100ce6102f4565b6040518082815260200191505060405180910390f35b610113600480360360208110156100fa57600080fd5b81019080803560ff1690602001909291905050506102fc565b005b60603373ffffffffffffffffffffffffffffffffffffffff16600160009054906101000a900473ffffffffffffffffffffffffffffffffffffffff1673ffffffffffffffffffffffffffffffffffffffff16146101da576040517f08c379a000000000000000000000000000000000000000000000000000000000815260040180806020018281038252600e8152602001807f6f6e6c7920666f72206f6e77657200000000000000000000000000000000000081525060200191505060405180910390fd5b60004711610250576040517f08c379a000000000000000000000000000000000000000000000000000000000815260040180806020018281038252600f8152602001807f7769746864726177204661696c6564000000000000000000000000000000000081525060200191505060405180910390fd5b600160009054906101000a900473ffffffffffffffffffffffffffffffffffffffff1673ffffffffffffffffffffffffffffffffffffffff166108fc479081150290604051600060405180830381858888f193505050501580156102b8573d6000803e3d6000fd5b506040518060400160405280601081526020017f7769746864726177205375636365737300000000000000000000000000000000815250905090565b600047905090565b60008160ff166000540290508034101561037e576040517f08c379a00000000000000000000000000000000000000000000000000000000081526004018080602001828103825260108152602001807f6e6f7420656e6f756768206d6f6e65790000000000000000000000000000000081525060200191505060405180910390fd5b3073ffffffffffffffffffffffffffffffffffffffff166108fc829081150290604051600060405180830381858888f193505050501580156103c4573d6000803e3d6000fd5b507fb43433d7655aba3e69b946130ab56cde97a532d63a08c379085660c5e828d08f816040518082815260200191505060405180910390a13373ffffffffffffffffffffffffffffffffffffffff166108fc8234039081150290604051600060405180830381858888f19350505050158015610444573d6000803e3d6000fd5b50505056fea265627a7a723158206706090ac8d9c01ee45c97a4d7b08d036231b0420f09182e1a1e1e8d3d0e203064736f6c63430005100032",
  "source": "pragma solidity ^0.5.16;\n\ncontract parkingManager{\n    \n    // fee\n    uint etherPerTime = 0.01 ether;\n\n    // manager's address\n    address payable owner;\n\n    event SuccessPayment(uint fee);\n    event QueryBalance(uint balance);\n\n    function payMoney(uint8 time) external payable{\n        uint fee = etherPerTime * time;\n        require(msg.value >= fee, \"not enough money\");\n        address(this).transfer(fee);\n\n        // emit Event\n        emit SuccessPayment(fee);\n\n        msg.sender.transfer(msg.value - fee);\n    }\n\n    function withdraw() external payable onlyOwner returns (string memory){\n        require(address(this).balance > 0, \"withdraw Failed\");\n\n        owner.transfer(address(this).balance);\n        return(\"withdraw Success\");\n    }\n\n    function queryEther() external view returns (uint){\n        return(address(this).balance);\n    }\n\n    modifier onlyOwner(){\n        require(owner == msg.sender, \"only for onwer\");\n        _;\n    }\n\n    // call when contract create\n    constructor () public {\n        owner = msg.sender;\n    }\n    \n    function () external payable {\n\n    }\n}",
  "sourcePath": "/home/hemoi/workspace/parkingManager_cps/truffle/contracts/parkingContract.sol",
  "compiler": {
    "name": "solc",
    "version": "0.5.16+commit.9c3226ce.Emscripten.clang"
  },
  "schemaVersion": "3.0.23",
  "updatedAt": "2020-05-10T09:23:03.529Z",
  "devdoc": {
    "methods": {}
  },
  "userdoc": {
    "methods": {}
  }
}